:020000041000EA
:1000000000D80108770100100D000000A5010010C4
:1000100000000000000000000000000000000000E0
:10002000000000000000000000000000BD01001002
:100030000000000000000000BF010010C10100101E
:10004000C3010010C3010010C3010010C301001060
:10005000C3010010C3010010C3010010C301001050
:10006000C3010010C3010010C3010010C301001040
:10007000C3010010C3010010C3010010C301001030
:10008000353830656530343600000000020000006D
:1000900000F002F800F040F80CA030C8083824182E
:1000A0002D18A246671EAB4654465D46AC4201D1B0
:1000B00000F032F87E460F3E0FCCB64601263342A2
:1000C00000D0FB1AA246AB4633431847286600000F
:1000D00058660000103A02D378C878C1FAD852079F
:1000E00001D330C830C101D504680C6070470000EE
:1000F0000023002400250026103A01D378C1FBD844
:10010000520700D330C100D50B6070471FB500F017
:1001100053FA1FBD10B510BD03488546FFF7F6FF23
:1001200005F088FE00F05AFA00D8010803B4FFF782
:10013000F1FF03BC00F05AFAFEE7000070B5054677
:100140000C46164602E00FCC0FC5103E102EFAD218
:10015000082E02D303CC03C5083E042E07D301CCDE
:1001600001C5361F03E021782970641C6D1C761EC2
:10017000F9D270BD7047FFF7FDFF72B61149124802
:10018000124A0B680360001D091D121F002AF8D1D6
:100190000D480F490860BFF34F8F0E488047FEE7B8
:1001A000FEE7FEE704207146084203D0EFF3098022
:1001B00000F002F8EFF3088003F04AF9FEE7FEE7EB
:1001C000FEE7FEE7000000100000000880000000CD
:1001D00008ED00E091000010801C800803D0401C56
:1001E000801EFCD100BF7047EFF3108072B67047DD
:1001F00080F31088704710B5202A04DB0846203AA7
:10020000D040002110BD0B462024D340D040A21A7C
:1002100091400843194610BDFEB5054610460C46F0
:10022000184373D0AE468C460020AD1A01469C415F
:1002300067D36646002701243D46B61A9D4102D386
:1002400013463A462124654676462F04360C3E4333
:100250002D0CB61A9D4104D3150C1B042B4312041C
:100260001034654676462F06360A3E432D0AB61AE6
:100270009D4104D3150E1B022B4312020834654620
:1002800076462F0736093E432D09B61A9D4104D301
:10029000150F1B012B431201241D65467646AF073F
:1002A000B6083E43AD08B61A9D4104D3950F9B0096
:1002B0002B439200A41C65467646EF0776083E4322
:1002C0006D08B61A9D411AD392185B41641C16E062
:1002D0000018764665464941B71A9D410191009044
:1002E00009D36046B11A98418E4684460098019918
:1002F0000025401C6941DD0752082A435B08641E43
:10030000E6D57246634603B0F0BDFFE70020014624
:10031000C046C0462A462346F5E7034610B50B43C0
:100320009B070FD1042A0DD308C810C9121FA3427E
:10033000F8D018BA21BA884201D9012010BD002096
:10034000C04310BD002A03D0D30703D0521C07E0DE
:10035000002010BD03780C78401C491C1B1B07D1E2
:1003600003780C78401C491C1B1B01D1921EF1D153
:10037000184610BDF8B5042A2CD3830712D00B7889
:10038000491C0370401C521E83070BD00B78491C7C
:100390000370401C521E830704D00B78491C037065
:1003A000401C521E8B079B0F05D0C91ADF0020236B
:1003B000DE1B08C90AE0FFF7C1FEF8BD1D4608C9EB
:1003C000FD401C46B4402C4310C0121F042AF5D235
:1003D000F308C91A521EF0D40B78491C0370401C54
:1003E000521EEAD40B78491C0370401C012AE4D445
:1003F00009780170F8BD01E004C0091F0429FBD28F
:100400008B0701D50280801CC90700D0027070479D
:1004100000290BD0C30702D00270401C491E0229DC
:1004200004D3830702D50280801C891EE3E70022E3
:10043000EEE70022DFE70378C27819464378120618
:100440001B0219438378C0781B0419431143090226
:10045000090A000608437047002203098B422CD387
:10046000030A8B4211D300239C464EE003460B4304
:100470003CD4002243088B4231D303098B421CD366
:10048000030A8B4201D394463FE0C3098B4201D358
:10049000CB01C01A524183098B4201D38B01C01A90
:1004A000524143098B4201D34B01C01A5241030907
:1004B0008B4201D30B01C01A5241C3088B4201D3B6
:1004C000CB00C01A524183088B4201D38B00C01A63
:1004D000524143088B4201D34B00C01A5241411A8A
:1004E00000D201465241104670475DE0CA0F00D06D
:1004F0004942031000D34042534000229C46030966
:100500008B422DD3030A8B4212D3FC22890112BAEB
:10051000030A8B420CD3890192118B4208D38901C3
:1005200092118B4204D389013AD0921100E08909DB
:10053000C3098B4201D3CB01C01A524183098B42BC
:1005400001D38B01C01A524143098B4201D34B01A5
:10055000C01A524103098B4201D30B01C01A524108
:10056000C3088B4201D3CB00C01A524183088B428F
:1005700001D38B00C01A5241D9D243088B4201D318
:100580004B00C01A5241411A00D201466346524103
:100590005B10104601D34042002B00D54942704702
:1005A00063465B1000D3404201B50020C046C04600
:1005B00002BD70477047704770B5064C7C44064DCD
:1005C0007D4403E0206800198047241DAC42F9D126
:1005D00070BD0000646100006461000010B5044655
:1005E000C046C0462046FFF7A1FD10BD01491820B6
:1005F000ABBEFEE726000200704770B58C18057888
:10060000401C6B075B0F01D10378401C2A1106D1F7
:100610000278401C03E00678401C0E70491C5B1EEB
:10062000F9D12B0705D40023521E0DD40B70491CA1
:10063000FAE70378401CCB1A921C03E01D780D707A
:10064000491C5B1C521EF9D5A142D8D3002070BDB5
:1006500003B40148019001BD4F040008F0B58DB00E
:1006600034216846FFF7E5FE082000260190684621
:10067000174F06726A463146384600F0B7FB002134
:10068000384600F0C3FC04461BE00A2002F0D6FE08
:100690000021384600F0BAFCA0420FD16D1C0A2D93
:1006A000F3D36846019606726A460021384600F088
:1006B0009DFB002C09D001200DB0F0BD002C02D014
:1006C00000240025E1E70124FBE70020F4E7000017
:1006D00080063140F0B51D4D0027A3B02C46002800
:1006E00001D01B4E00E01B4E20680121C906884244
:1006F00028D320681849884224D86068A84221D3AA
:100700006068164988421DD86068C0071AD06846DC
:1007100005F019FD0021684605F0AEFD3246294678
:10072000684605F0F1FD1BA9684605F07BFC6846AC
:1007300005F000FD701920221BA9FFF7EEFD00282F
:1007400000D10127384623B0F0BD00000080001022
:10075000007E0300007E07000000020800E0071092
:1007600003484168034A1062006880F3088808471C
:100770000080001000112040F8B5674C0546237832
:10078000164600200A22042B11D02378082B0ED005
:10079000022700290CD005292BD003292CD00129B0
:1007A0005DD002296FD004296ED006296DD09BE060
:1007B000207800286AD101202070284603F09CFC94
:1007C0007D26F600304602F039FE284602F086FF0C
:1007D000514800222830077403460421284603F0BC
:1007E00098FC304602F02AFE02214C4802F066FFD7
:1007F00087E0012248492BE02778042248493B0042
:1008000005F056FA0B16160E0717122A10170E16B9
:1008100017006068002802D00520207000E02270D8
:10082000642006E00820F8E76068002800D1227004
:100830000846014620780027374B324620331F7088
:1008400059700E0A9E70090CD97018715F711946A3
:10085000284604F0DFFDF8BD07202070E8E7207887
:10086000022802D0207805283ED1002E23D0032074
:10087000207032462B49284604F094FD002005469E
:10088000284F606012E01BE024E027E025E0A0682C
:1008900000F0A4F97919A06800F06EFAA068FF359D
:1008A000FF30FF300230FF350235A060B542EED395
:1008B00001206060F8BD2078022809D0062005E0FC
:1008C0002078022810D1002E02D009202070F8BD17
:1008D00022701AE020780A2813D005E02078092831
:1008E0000FD0207802280CD02078030005F0E0F922
:1008F0000B0B0B0B0B0B0808070708080D00E6E7AE
:10090000E6E72770F8BD0020207001231A46002179
:10091000284604F090FCF8BD280800083C1C00089C
:1009200070170000EC1F0008062900D301BE130A4F
:1009300000D001BE090209182120C0010818026078
:1009400000687047062900D301BE0902091801207A
:10095000000308180168490049080160704706292A
:1009600000D301BE090208182121C90140180068FE
:1009700070470000030010B5114820D006291ED290
:10098000002A1CD01468002C19D05068032800D904
:1009900001BE0802C1180120000308180462117981
:1009A000137A8907890D002B01D00123DB07527AC6
:1009B0001943002A00D0042211430160002010BD19
:1009C0000100FE00F8B5050067480C467ED0002CFB
:1009D0007CD02078002806D0012804D0022802D03C
:1009E000032800D001BE6678002E06D0012E04D068
:1009F000022E02D0032E00D001BEA378002B06D019
:100A0000012B04D0022B02D0032B00D001BE22798F
:100A1000002A06D0012A04D0022A02D0032A00D0DC
:100A200001BEE1790091002902D0012900D001BE68
:100A3000217A8C46002903D06146012900D001BEED
:100A4000E1788E46002903D07146012900D001BE0D
:100A5000A779002F04D0012F02D0022F00D001BEB1
:100A6000617A002908D0012906D0022904D003297F
:100A700002D0042900D001BE8007B607800F360FD0
:100A80009B0730439B0E92071843120E1043627966
:100A9000002A01D0FF2201321043009A4907D207F1
:100AA000520910436246D207120910437246D20718
:100AB000D2091043BA07920B104349080843286033
:100AC000E1686960617A04290BD000E04AE04000E7
:100AD000400F2169042800D101BEA960607A002876
:100AE00003D02846E16900F057F82846E16A00F093
:100AF0003DF8607A012801D0022832D10122D203C8
:100B0000616950008B18834200D301BEA3699E180F
:100B1000864200D301BE89B21B0419432961617A60
:100B200002291ED12B68A16A5B005B0F022B00D04B
:100B300001BE491E814200D301BE6B6989B21B0C04
:100B40001B040B436B61236A9918814200D301BED9
:100B5000616A8A18824200D301BE98B20904084330
:100B6000A8610020F8BD00000100FE0000B50028CB
:100B700000D101BE02685200520F130005F098F830
:100B80000504080A06040500C16000BD016100BD3E
:100B9000416100BDC16100BD02685200530F4A1E91
:100BA000002B02D0042B09D000E001BE0121090472
:100BB0008A4200D301BE91B2C16070470123DB03BA
:100BC0009A4200D301BE4900491E89B28160704734
:100BD000C00501D0002070470120704770B5054660
:100BE000144CFFF7F5FF002822D004F0B7FF13489C
:100BF00011490160456000218160C1601048FF24F7
:100C0000006801344030007D00280CD002F08CF8E0
:100C10007D21C900FFF720FC01460A48FFF71CFCB4
:100C20000949411800E000212046FFF711FD044664
:100C3000204670BD060052000001001CB80A0008E2
:100C40005806000860F590009808000010B50248AA
:100C500000F004F810BD00000806000810B50C49AB
:100C60000028086105D002210170FF214170002198
:100C70004180084800684030017C002907D0407C52
:100C8000002804D002220449002000F071FB10BDAE
:100C90004406000858060008C903000810B50C4CAB
:100CA000002000F001FA00F019FA00280DD10948DF
:100CB000006800F013F80446074801210068426804
:100CC0009160406881680029FCD1204610BD000079
:100CD00002005000B80A000858060008011E29D07A
:100CE00016DC1F480A1A814226D00ADC1D4810185B
:100CF00006D0092829D01C49C84218D1292040040F
:100D000070471748C043081819D001280FD119E0BF
:100D1000802922D004DC10291AD0402807D119E0FC
:100D2000C11F1248F939EBD0114AD142E8D00F481F
:100D3000F9307047002070470C48401F70470B483F
:100D4000001F70470948C01E704705200005704706
:100D5000084870470748401C70470448401E7047C9
:100D6000030000F003000050FFFFFFAF0600520039
:100D7000FA00AEFF0100500070B50D460646164C55
:100D8000FFF726FF002824D0002D22D004F0E6FE35
:100D9000134812490160FF24013444608660C56035
:100DA000104800684030C07C00280DD001F0BCFF26
:100DB0007D21C900FFF750FB01460B48FFF74CFBB4
:100DC000E1218900411800E000212046FFF740FCA6
:100DD0000446204670BD00000600520000010006D7
:100DE000B80A000858060008808D5B00F8B50600B8
:100DF000844814460D467CD0002C7AD0082D00D3B0
:100E000001BE2068012800D901BE6068010903D134
:100E1000012801D0092800D101BE207A400900D064
:100E200001BEE068002806D0012804D0022802D0C4
:100E3000032800D001BE2069012800D901BE6069E5
:100E4000012800D901BE206A012800D901BE606ACC
:100E5000012800D901BEA06A012800D901BEE06ABC
:100E6000002806D0012804D0022802D0032800D090
:100E700001BE206B00280ED001280CD002280AD019
:100E8000032808D0042806D0052804D0062802D05C
:100E9000072800D001BEE069002806D0012804D050
:100EA000022802D0032800D001BEA1698E46012984
:100EB00000D901BE0127AF40690000910322103123
:100EC0008A403B461343504A12688032D278944697
:100ED000B2588007800F88407146C907C90F9A43EE
:100EE000A940114308436246B050227A2946304651
:100EF00000E084E000F092F86068082D00D301BEA5
:100F0000010903D1012801D0092800D101BE3E49C1
:100F1000AA000968803149788C4671580F239340A4
:100F20000007000F99439040084361467050E06805
:100F3000082D00D901BE002806D0012804D00228BF
:100F400002D0032800D001BE2F4A009912688032D7
:100F500012789446B25803238B408007800F9A433F
:100F6000884010436246B0502169082D00D901BE67
:100F7000012900D901BEB069C907C90FB843A9400A
:100F80000143B1616169082D00D301BE012900D977
:100F900001BE1D48006880308278B058C907C90F6B
:100FA000B843A9400143B150174800688030017927
:100FB0007058A38C020A208CDB07C007C00F9B0F60
:100FC0001843238D1202DB075B0F1843A38D9B0789
:100FD000DB0E1843238E5B071B0E1843FE232B40AA
:100FE0009B009840104370502068082D00D301BE2C
:100FF000012800D901BE002802D0B7600020F8BD4A
:101000007760FBE701005A0058060008082900D95C
:1010100001BE0069C840C007C00F704730B508293D
:1010200000D301BE530900D001BE104B1B689C6960
:101030005B69001BC00900011B18D0061F24C00EED
:10104000042907D21A68C9008C40A2438840104383
:10105000186030BD5A68CD00203DAC40C900203931
:10106000A24388401043586030BD00005806000875
:10107000130C00D001BE0B0C00D001BE120489B2CB
:101080000A43026000687047064932220968525CD0
:10109000824200D801BE0A6A8031498F414350180C
:1010A0007047000058060008064932220968525C61
:1010B000824200D801BE0A6A8031498F41435018EC
:1010C0007047000058060008034909688031C96B61
:1010D0004058C00F704700005806000803490968CF
:1010E0008031C96B4058C00F704700005806000897
:1010F0000068C00FC00701D5002070470048704746
:1011000001008A000068C00FC00701D500207047A9
:101110000048704701008A0070B50C460546FFF78D
:10112000D3FF002806D0200C00D001BEA0B268601A
:10113000002070BD004870BD01008A0070B50C0031
:10114000054600D101BEFFF7BFFF002803D0E868C5
:101150002060002070BD014870BD000001008A00C1
:1011600010B5002A00D101BE00F002F810BD000049
:1011700070B514460D460646FFF7BAFF002801D0A9
:10118000044870BDF460280C00D001BEA8B2B06065
:10119000002070BD01008A0002490A68002A00D1BF
:1011A000086070473C060008F0B51E4C059D246899
:1011B000002C00D101BE2C26704300191E04DCB2A5
:1011C0001B0C360E836050C0174E32273368083828
:1011D000FF5CA74200D801BE1F6A80335B8F634368
:1011E000FB180361346833264368365D9E4200D89D
:1011F00001BE0126246A5B0136039B19E418446191
:1012000083681E0C01D001BE01BE1E041E43A660F1
:10121000C261016200218161002D01D02988818194
:10122000F0BD00003C06000858060008F8B500268E
:10123000044637460096002800D101BE20690028E8
:1012400000D101BE6069002800D101BE216A0029D9
:1012500000D101BEC568290C21D02A0C0021FFF75E
:1012600007FF1A49206909688031C96B4158C90FC5
:1012700015D06946FFF762FF00280CD10098E2699B
:1012800001680F0CC9B28A4205D9226A89005158F7
:10129000002900D0884739462069FFF73DFF280420
:1012A000000C0FD0A9B200226069FFF7E1FE606A6E
:1012B000002802D08047666203E0A06A002800D0C0
:1012C0008047A66160690068F8BD00005806000804
:1012D00010B505490968002900D101BE2C225043F0
:1012E0004018FFF7A3FF10BD3C06000830B50025ED
:1012F0008DB0044601950295002800D101BE6068BA
:10130000042800D301BEE06A002800D101BE206B92
:10131000002800D101BE1422214603A8FEF70EFFCB
:101320001422A11808A8FEF709FF694605988880CD
:1013300003981330C8800498029001A80090079B7E
:10134000A26AE16A0698FFF72FFF00220095114676
:101350000C9B0B98FFF728FF01A8216B01F0BEFF43
:1013600069460420085E04F0B1FC0DB030BD0000F9
:1013700010B50A4B1B68002B00D101BE2C24604322
:10138000C018036A002B00D101BEC069904203D986
:1013900090001950002010BD014810BD3C06000807
:1013A0000A028A00FFB581B0140000D101BE1F4AB5
:1013B0001268002A00D101BE2C23584386181C480D
:1013C000594300688D182030C77C68683946FFF79C
:1013D00043F8012088400004009039467068FFF708
:1013E0003BF801228A40316900291BD0AB691148C2
:1013F000002B15D10968C90FC90711D5208800999C
:1014000080B2084320603069C4600120A86104985C
:1014100068623069110C00D001BE91B28160002079
:1014200005B0F0BD0348C01EFAE700003C06000806
:101430005806000807028A00F3B581B000211D4A52
:10144000009111681A4C00290DD0C9680A688242BF
:101450002BD946097201801A0125854002984F68F0
:10146000002803D005E01248401EFEBDFEF7BCFE7A
:10147000009010480068FFF745FE00280ED1B1002B
:101480007858284203D0A8437850002401E0084C43
:10149000641E084800210068FFF73EFE02980028FD
:1014A00004D10098FEF7A4FE00E0034C2046FEBDE8
:1014B000030188004006000804018A0010B50346B5
:1014C0000A4814460C430AD0002A07D0002905D048
:1014D000074806C00649184600F00EF810BD184629
:1014E000FFF7D2FD03490860002010BD03018A0008
:1014F000000600084006000870B51B4A0C4612683A
:1015000001462032927C17488A4229D9002C27D0E4
:101510002278D20624D10846FFF7B6FD134D0021EC
:101520000A46286003E08E006368491C9A512368CC
:101530005B098B42F7D80021FFF7EEFD00212868F8
:10154000220000D101BEFFF713FE064CA41E0028A6
:1015500005D100212868FFF7DFFD002800D02046D4
:1015600070BD000003018A0058060008400600080C
:101570000D49096800290FD0C9680A68824211D94B
:1015800042095301C31A01209840496892008958C2
:10159000014204D0054870470448401C7047034886
:1015A000401E70470248704740060008010188004D
:1015B00004018A00014908607047000058060008CD
:1015C000F0B5154B05461B78124885B0002B1ED090
:1015D0000C4617460126FF2001ABD1C3002003466D
:1015E000024600906621284600F082FFFF2001ABF2
:1015F000D1C300200346024600909921284600F0FE
:1016000077FF04467D20C00001F018FF204605B09A
:10161000F0BD00008000B2002408000800220A602B
:101620004A608A60CA600A614A618A61016801226F
:10163000D20711430160704730B5234C002840D0D9
:1016400000293ED0002B3CD004685A6200221A8543
:10165000E20FD20734D4E20732D10F22D20183182D
:101660009A6C920892009A640B681A06120E03D0C4
:10167000DAB2012A00D001BE8A681406240E07D00F
:10168000D4B2012C04D0022C02D0032C00D001BE15
:101690004C68072C00D901BEC9680D062D0E03D079
:1016A000CDB2012D00D001BEDB079207DB0F920CFB
:1016B00013436207520BC9071343C9090B43036065
:1016C0000024204630BD00000400B200F0B51546ED
:1016D0000A4685B0127800211E46FF230A9C01931A
:1016E0000292039100910B460A4607460494314644
:1016F00000F0FEFE002806D10023012229463846CC
:10170000009400F063FE05B0F0BD0000FFB51D4879
:1017100087B014460D0000D101BE002C29D0AF695E
:1017200000207E6905900246396803E01302225CBE
:101730001A43401C8842F9D305A9284600F0BEFB95
:10174000002E1BD03279FF2A18D00E49884215D0BE
:10175000002810D030682D7801230A990393029550
:101760000192049139680091C1B22346079800F0B4
:10177000BFFE0BB0F0BD05988068ECE701487C30F7
:10178000F7E700000400B20030B50446886985B070
:10179000C3680A48002B0ED0087802900125FF216B
:1017A000002003950492019100901A79197803465C
:1017B000204600F09DFE05B030BD00008000B20064
:1017C00010B5002301241946E402DA011218121997
:1017D00011609160D1601162116451649164D164AF
:1017E0001165116651669166D16611675B1C042B09
:1017F000EBD310BDFFB58BB01F460021D4190C9858
:10180000641E164608910991002800D101BE806926
:101810000690806902900698006C0A9006984068CD
:10182000A0427DD9079107A90C9800F047FB00283A
:1018300024D10798002821D001680591721AC56843
:1018400010462946FEF708FE4543059922464E19E3
:1018500007A90C9800F032FB050028D107990F6802
:10186000C968E01B0C46401CFEF7F6FD002900D0BD
:10187000401C44433C19641EA71B17E030460299E4
:10188000FEF7EAFD002902D0029948430646601C93
:101890000299FEF7E1FD002906D00298641C60431E
:1018A0000299FEF7D9FD0446A71B00257F1C069868
:1018B0004068A04255D9002000900B980068C007EE
:1018C00045D0FEF791FC009041E0324609A90C9802
:1018D00000F0F4FA05000CD1099801690A91C26878
:1018E000029201684068491E5043401803908442A8
:1018F0002AD2039428E0149A0C990B98FFF744FF1E
:10190000050024D106980022036808A9304604F097
:10191000AFF908AA149B0C990B98FFF7F7FE00E0AB
:101920001FE0050013D17D200A9AC0004243149B9A
:101930000C990B9800F05CFA05460298874208D98A
:1019400036183F1A002D02D103988642D3D3002FB8
:10195000BBD10B980068C00704D00098FEF748FC84
:1019600000E0024D0FB02846F0BD00000400B200B8
:10197000F7B584B00498364D0026002862D00029BF
:1019800060D0486800285DD0069A002A5AD00968BD
:10199000002957D000252F460291019049E0019976
:1019A000B8000C58002C43D0217A002906D0012918
:1019B00004D0022902D0032900D001BEA06900286A
:1019C00043D02078049A012806D0022807D00428A2
:1019D00008D0082839D108E00120C00207E0112012
:1019E000C00104E00920000201E01320C00110182A
:1019F0002BD0026803231B0489079A43890B0A43EF
:101A00000260207940070CD506980090237A22784E
:101A1000A169049800F0F8FA002802D00820B84024
:101A20000643A0690068002801D0042800D901BE3F
:101A30007F1C02988742B2D3002E03D05920400465
:101A400035460543284607B0F0BD014DF4E70000D8
:101A50000400B200FFB5DBB0649F002900D101BED5
:101A60008C69002C00D101BE002640A8067748A84A
:101A7000067140A8067608784390087A2390606B38
:101A80004590304603AD2E54401C8028FBD30020E7
:101A900057AA58AB00211154195459AE3154401C67
:101AA000C0B20328F6D3239A43995B9800F0E4FC74
:101AB000459800287ED038206946A1C157AA439B8B
:101AC00045995B9804F002F8002873D16846007BC2
:101AD0005328FAD16846407B4628F6D16846807B79
:101AE0004428F2D16846C07B5028EED16846407C3D
:101AF0000128EAD16846007C4A90FF2047AB57AAEC
:101B000003A9000203F0CAFD40A8007F0028D1D03D
:101B100049AB58AA03A9A44803F0C0FDA24846ABAC
:101B200059AA03A9C01E03F0B9FD40A8017E0029EF
:101B300002D10020E064206540A8007F802801D801
:101B4000802901D9994D2CE1E16800290FD1216943
:101B500000290CD16169002909D1E169002906D168
:101B6000216A002903D1A16A002900D101BE03A97D
:101B70006A4683C257AA439B45995B9803F0A6FF28
:101B8000054603A8002200904BAB104600990126A1
:101B900089188E46097F8E400C2141438C46C91816
:101BA0004E6071464E7F6146401C921C5E54042874
:101BB000ECD300E0F3E069460A8AC87C897C000621
:101BC00009040843104302D4401CC00803E001216B
:101BD000C907C01E08436A466060927B0021520715
:101BE000920F08D0012A02D0022A07D105E0012174
:101BF0000906884201D8032100E004212160E16840
:101C000006200860002008710121A163A16A052255
:101C10000A6008714A98A668002818D008A8007DB4
:101C200001090120884060620D998804C20FC80430
:101C30000907C00E090F002A07D04022401C4900A6
:101C40005043891C4143A1640AE00822F6E7FF20C3
:101C5000013060625648A0645E98002800D15D9013
:101C6000334603A85D9A239903F0A7FD489001200D
:101C700044902068042805D0206A03F064FF4BAA32
:101C800003A94BE010A90097C97A2246439B5B98B1
:101C900003F0D2FC054610A9887A497A400604D59B
:101CA000C80602D54349012008700020014623AA36
:101CB0001154401C8028FBD3002D35D148A8007951
:101CC000694685C158AA439B45995B9803F0FEFE7F
:101CD000050029D1489923980B0003F0E9FF061865
:101CE00014100C080418800611D5EC200EE0C00674
:101CF0000DD56C200AE0000709D5BC2006E040079E
:101D000005D53C2002E0C00701D013203060226AD4
:101D100023A8489903F02AFD4BAA23A9204603F0E3
:101D2000BEFD4490002813D0449803A90818203819
:101D3000C17F01208840A0614A98002805D04BAAA5
:101D400003A9449803F0DEFC01E07D20C00020647C
:101D5000206D002825D040A9097E03A80297009194
:101D6000019059AA439B45995B9803F0AFFE05008B
:101D700017D143984BA902910090019740A8027E89
:101D8000234603A95B9803F0CDFD084905467B393E
:101D9000884206D10020E0640546206501E0034D3D
:101DA0007C3D28465FB0F0BD84FF00008100B2009A
:101DB000A0860100240800081CB501236C46A380FE
:101DC0008C69A36A002B11D000921B7801AAFFF73F
:101DD0007DFC002806D169468988208FC9B2084059
:101DE0006946888068468088002800D001201CBD94
:101DF000FFB581B014460646049A0299FFF7DCFF4E
:101E00000499002900D101BE0D8D002D1CD00028A1
:101E10004DD0A54200D3A5B23068C007284602D0F5
:101E200001F00CFB01E001F04FFB3046049A0299EF
:101E3000FFF7C2FFAC4201D9641B00E00024002878
:101E400035D0002CE8D12FE0002830D01948A50863
:101E5000854201D9054602E0002D00D101257D21F2
:101E6000C9002846FEF7F8FA0F4600903168C90706
:101E700005D001F0C9FA384601F0E0FA04E001F0BB
:101E80001FFB384601F020FB3046049A0299FFF709
:101E900093FFAC4201D9641B00E00024002806D067
:101EA000002C01D00098E1E7034805B0F0BD002008
:101EB000FBE7000040420F000200B200F0B58E4682
:101EC0000100124800D101BE89694B68934217D9BD
:101ED0000E480B6D801C9C46002B11D00023CE6C4D
:101EE00010E061469C000C59E168A0CC083C4F43CF
:101EF0007F19AA4205D3BA4203D27046046000207B
:101F0000F0BD5B1C9E42ECD8F0BD00000400B200A6
:101F1000FFB589B000203B4C129F0E460690002969
:101F200000D101BE0C98002800D101BEB0690B9908
:101F300085684068C919814260D8002007900998D7
:101F40000068C00751D0FEF74FF907904DE001201F
:101F50000004874200D838460590B0690022036823
:101F600006A90B9803F084FE68790022317801AC51
:101F7000139B0FC4B06906AB006800902A792978DA
:101F8000099800F0B5FA040031D1A8680146401C58
:101F900010D033780020139A0293FF240390049208
:101FA0000090019403462A7BC9B2099800F0A0FA78
:101FB00004001CD12969002904D0099800F048FACE
:101FC000040014D1139800902B7D059A0C99099860
:101FD00000F0FCF904000AD105980B993F1A081883
:101FE0000B900C99059808180C90002FAFD1099808
:101FF0000068C00702D00798FEF7FAF820460DB037
:10200000F0BD00000400B200FFB589B0129F1D466C
:1020100016460C0000D101BE1C2101A8FEF709FAEA
:1020200068460671057300231A4601A900970794B4
:102030000998FFF70FFD0DB0F0BD0000FFB589B0A6
:102040000020464C129F0D460790002900D101BE8A
:102050000C98002800D101BEA869416A0691066A61
:102060000B994068C919814275D8002008900998D9
:102070000068C00766D0FEF7B7F8089062E00699DE
:102080000B98FEF7E9F90698CA19824201D2384640
:1020900000E0401A05902946139A0998FFF774FB4F
:1020A000040051D1A8690022036807A90B9803F026
:1020B000DFFD70790022297801AC139B0FC4A86959
:1020C00007AB0068009032793178099800F010FA77
:1020D000040039D1B0680346401C10D02A78002093
:1020E00013990491FF2403900090D9B201940292B5
:1020F0000346327B099800F0FBF9040024D13169D2
:10210000002904D0099800F0A3F904001CD1139809
:102110000090337D059A0C99099800F04DFA04005F
:1021200012D1A8692946826C139B0998FFF760FEBB
:10213000040009D105990C9840180C900B98401890
:102140007F1A0B90002F9AD109980068C00702D01F
:102150000898FEF74DF820460DB0F0BD0400B2001F
:1021600002464078137800021843002905D0D17840
:10217000927809061204114308437047F3B54F697A
:1021800081B00E46CD68019880300090406C040705
:10219000240FBC4200D93C46002C66D0082C1ED02F
:1021A000012C26D0022C28D0032C2AD0042C32D08B
:1021B000052C35D0062C3DD00098072C806D46D0DC
:1021C0000122294600F03AFA0098806D0122291D6B
:1021D00000F034FA08242D193F1B0098D6E7009828
:1021E000806D0122294600F029FA0098806D0122B5
:1021F00029E00098006D2870EDE70098406D0022FE
:102200000CE00098406D0022294600F017FA009873
:10221000006DA870DFE70098806D0122294613E069
:102220000098806D0122294600F008FA0098006DA0
:102230002871D0E70098806D0122294600F0FEF950
:102240000098406D0022291D00F0F8F9C3E7012233
:10225000294600F0F3F90098406D0022291D00F096
:10226000EDF90098006DA871B5E7F5607761002F72
:102270000FD10F210198C9014118886C02229043A7
:1022800088640320B061306A002802D0316A0320DC
:1022900088477761FEBDF3B58F6881B00E460D6843
:1022A00001988030009040680107090F0820441A07
:1022B000BC4200D93C46002C73D0082C23D0012C02
:1022C00030D0022C30D0032C36D0042C3CD0052C3E
:1022D00041D0062C47D0072C52D001212846FFF7C9
:1022E0003FFF009988610121281DFFF739FF009900
:1022F0008861082400982D1940683F1B0007000FD3
:1023000008210C1AD4E701212846FFF729FF0146CE
:10231000009881610121281DFFF722FF01460098E6
:102320008161E7E7297838E000212846FFF718FFA8
:10233000014600984161DDE700212846FFF710FFC4
:1023400000994861A97828E001212846FFF708FF95
:1023500000998861CEE701212846FFF701FF009927
:102360008861297919E001212846FFF7F9FE0099D3
:1023700088610021281DFFF7F3FE00994861B9E745
:1023800001212846FFF7ECFE009988610021281DF5
:10239000FFF7E6FE00994861A97900980161A9E775
:1023A000FFE73560B760002F0FD10F210198C901F9
:1023B0004018816C4908490081640120B061F069CE
:1023C000002802D0F16901208847FEBD70B58CB0AD
:1023D00004461E48109D002B08D0012B06D0022B6E
:1023E00004D0032B02D0FF2B00D001BE002A2BD03B
:1023F0001648666CC01E7607760F042E24D2980706
:102400000123800BDB04C018531E9BB218432065C8
:102410000020002918D06B6A0B93039105920021CC
:10242000089104210691069904290DD1074DAD1E8E
:1024300069462046FFF7A2FE0BA800F045F8069972
:10244000042901D1A842F3D10CB070BD0400B20040
:102450000246084800290CD0536CC01E5B075B0F76
:10246000042B06D2491E88B2032189044018106546
:10247000002070470400B200002A06D0012A04D0D0
:10248000022A02D0032A00D001BE012912D002295B
:1024900013D0042914D008290BD11321C9014018E5
:1024A00007D0016803231B0492079943920B114341
:1024B000016070470121C902F1E71121C901EEE76E
:1024C00009210902EBE7000010B50446216800204D
:1024D000002907D0012000F0B1FF2068401E2060D5
:1024E00001D0002010BD014810BD00000200B20064
:1024F000FFB583B08C46064600230E9F0C9D1099B5
:102500000D98002A08D0012A06D0022A04D0032AF6
:1025100002D0FF2A00D001BE002808D0012806D032
:10252000022804D0032802D0FF2800D001BE002DCD
:1025300006D0069C002C00D101BEFF2800D101BEB0
:10254000496A009191073F073F0D890B3943624665
:1025500000241143002D0AD00022D207120C11438F
:102560003165002D23D98007800B019001E00F9A7F
:10257000F3E7706C4007400F04280FD2601C0199EC
:10258000A84201D2002200E00F9AD207120C114398
:10259000069A125D3A4311433165C4B26846FFF7AB
:1025A00093FF0346AC4202D202488342E1D118466F
:1025B00007B0F0BD0200B20070B58CB004461E48F2
:1025C000109D002B08D0012B06D0022B04D0032B2A
:1025D00002D0FF2B00D001BE002A2BD01648666C1B
:1025E000C01E7607760F042E24D298070123800B95
:1025F0009B04C018531E9BB218432065002000297D
:1026000018D06B6A0B93009102920021079102216E
:102610000691069902290DD1074DAD1E6946204647
:10262000FFF739FE0BA8FFF74FFF0699022901D1EA
:10263000A842F3D10CB070BD0400B200030A0870C8
:102640004B70002A03D0020C8A70000EC8707047CD
:1026500070B5B2B0064634216846FDF7EAFE902216
:1026600013490DA8FDF76AFD00240DAD002E0AD018
:10267000182060434019C1680191017A6A461172BD
:102680004069009007E018206043401901690191FA
:10269000407A6946087218206043411949682858F1
:1026A0006A46FEF7A3FB641C062CDFD332B070BD74
:1026B0008064001010B50348034A01680348FFF71F
:1026C0007BFB10BD2C650010C80A000800004140CB
:1026D000F0B5002685B00446384F02A8C2C0FF22DC
:1026E000019235463346009632469F213448FFF723
:1026F000FFFE01005ED1002356222146304800979C
:10270000FFF764FE010055D1227C38462C30512A57
:1027100005D1627C522A02D1A27C592A02D0002221
:10272000026047E00123224620320360D7794760E8
:10273000BB408360937A002B02D001279F40C76083
:10274000127B0261562A30D334E0A21910462130A0
:10275000437B007B1B0203432801C0195B1C23320F
:102760004361537B127B1B0213431A028261002DCB
:1027700006D0436882685A43C368D218C26101E038
:102780000022FA6143698269C7695343DB195B1E02
:10279000036201200003824203D10A484268521CAE
:1027A00042606D1C361DEDB2F6B2044F2C3738690D
:1027B000A842CAD8084605B0F0BD0000C80A000803
:1027C00000004140F41A00081CB50B460449009271
:1027D00001910449024609680348FFF799FB1CBDB3
:1027E000C80A00082C65001000004140F7B52948D0
:1027F0000C0482B003692849009309680026002967
:102800000AD02C38009025481346016822462448F7
:10281000FEF7F0FF05B0F0BD1E488068A04201D869
:102820002048F7E720484068002823D125E01948D0
:1028300031010F18F869A0421BD8386AA04218D39A
:102840000121B8690903884213D100250EE028034D
:1028500002192121029800F02BF8002805D1134914
:10286000029800F0E5F8002803D16D1C7869A842B1
:10287000EDD8761C00988642D9D32246DC210298F6
:1028800000F016F80028C5D10849029800F0D0F8E9
:10289000C0E70000F40A00085C0600082C65001080
:1028A000000041400400B200F41A000810EB0900D7
:1028B00070B586B005460C4605A804235B1EDBB246
:1028C000C254120A002BF9D10C480E4E01680C4A72
:1028D0003046FEF759FF00280DD109480490012128
:1028E000042000220391009002950192E1B205AB11
:1028F0003046FFF7FDFD06B070BD00002C650010EE
:10290000C80A00080000414070B596B0054658213D
:102910006846FDF78EFD012000F0C4F8012108464D
:1029200000F044F90221012000F024F9012000F018
:10293000D3F80120FFF78CFE254C224B224A234975
:102940002046FEF779FE002201212046FFF794FD84
:102950001C492046FEF762FE1A4A1E492046FFF730
:1029600007F801241C4E002800D13460294668462F
:10297000FFF7AEFE134A31682C32002914D11749F3
:1029800093684B6004230B608D6813232B60CD6824
:1029900006232B600D6A12232B608D6A05232B60A2
:1029A0007D231B018C638B64D168002907D0094A01
:1029B000526812689269536A8B4200D0516216B015
:1029C00070BD0000C80A0008102700006C640010E9
:1029D00000004140306500105C060008C007000898
:1029E00070B50C4C01460025094A2046FEF7E8FD6B
:1029F000012000F057F80020FFF72AFE2046FEF7DE
:102A0000DFFE2068400040082060284670BD0000BE
:102A1000C80A0008000041400348044900680968EA
:102A2000084300D001207047F40A00085C06000843
:102A3000F8B500240E460746254608E02046641CEB
:102A4000B04201D3054D07E0012000F0F7FC384605
:102A5000FFF730FE0028F1D12846F8BD0200B20091
:102A60001CB50B46044900920191044902460968CD
:102A70000348FFF7E3FA1CBDC80A00082C650010E4
:102A80000000414010B5064909680A688031CB68EA
:102A9000D158FF242402A14300020143D15010BDAC
:102AA00058060008094900280DD0094A126840322A
:102AB0001278824207D98100064808180168490047
:102AC00049080160002108467047000001004A00E3
:102AD0005806000880032640094A01461268074844
:102AE000403212788A4208D90648890008180168DD
:102AF0000122D207114301600020704701004A0003
:102B000058060008800326400649096840310978C4
:102B1000814200D801BE0449800040180068800648
:102B2000800F7047580600088003264010B5024603
:102B3000FFF7EAFF01248440104600F009F800F096
:102B400051F8610808182146FDF786FC10BD000009
:102B50000649096840310978814200D801BE04491C
:102B60008000401800680007000F704758060008F2
:102B7000800326400B4B02461B68094840331B78F4
:102B800093420CD903290AD80748920012181068FA
:102B9000302389079843890E08431060002070474E
:102BA00001004A0058060008800326400B4B0246ED
:102BB0001B68094840331B7893420CD90F290AD867
:102BC0000748920010180268090712091201090F3C
:102BD0000A4302600020704701004A0058060008BE
:102BE0008003264010B504460B4800682030817FE2
:102BF000A14200D801BE002C0BD0C07FA04204D35C
:102C0000204600F097FA002802D1204600F020F874
:102C100010BD00F067F9F6E7580600080A49096890
:102C20002031897F814200D801BE81000748091800
:102C3000086C4007400F042804D10868C006C00E85
:102C4000FF3001307047000058060008000326409E
:102C500010B5184909682031897F814200D801BE2A
:102C60000022FFF7DBFFFF2411340146031B12484B
:102C7000A14217D006DC00290BD001290BD0022974
:102C800015D10BE0012B12D0022B10D0032B0ED14B
:102C90000AE00A4A0BE00A48826808E000F08AF875
:102CA000024604E0C06800E0C06BC00FC2031046DB
:102CB00010BD0000580600080005264000127A00EA
:102CC00024060008034800680168803080680858BE
:102CD000000E70475806000810B50020FFF726FFC9
:102CE0000246FFF7EFFF411C48088018FDF7B4FBD0
:102CF00010BD0000054909680A6880318968535889
:102D00001B021B0A00060343535070475806000875
:102D10000448006801688030806808580004000E8C
:102D2000704700005806000810B5FFF7D5FF0246AF
:102D3000FFF7EEFF411C48088018FDF78DFB10BD22
:102D400010B5064909680A6880318B68D158FF249C
:102D50002402A14300020143D15010BD58060008CF
:102D600070B505000AD00026114C1048E16A002910
:102D700013DBE06AE1050843E06205E00126F3E7C2
:102D8000012000F05BFB6D1E00F020F8022801D04E
:102D9000002DF5D12E4301D0002070BDE06A400027
:102DA0004008E0620148401E70BD000003004A0078
:102DB0000005264000B500F009F8022801D00020E7
:102DC00000BD0148C06800BD240600080548016B2D
:102DD000C943890703D0006BC007C00F70470220AA
:102DE0007047000000052640094881680322120749
:102DF00091430122520789188160016849004908FE
:102E00000160C16849004908C160002070470000A6
:102E100080052640F8B5040006D000261A4DE86863
:102E200029060843E86005E00126F7E7012000F0E5
:102E300005FB641E2869400701D4002CF6D1A86860
:102E400003273F070121B84349074018A8603046CF
:102E5000204308D0286889000843286003E0012047
:102E600000F0ECFA641E00F083F8002801D1002C79
:102E7000F5D1264304D0A8683843A8600020F8BDE7
:102E8000FFF7B2FF0148F8BD8005264002004A0066
:102E9000002800D101BE124A11688B039B0BC901A7
:102EA000C90F0360C1715168CB04DB0CC901838079
:102EB000C90D018191680B071B0F83720B061B0F55
:102EC000C372CB02DB0C89008381890F8173D168C7
:102ED0004A05520FC9018271C90D01827047000075
:102EE00080052640F0B585B000266846FFF7D0FF84
:102EF00000F038F8002805D06846807B022801D011
:102F0000012000E0002069468C88C979009D0029D5
:102F100001D0022700E00127002820D0002C1ED07D
:102F20000020FFF795FE294602F0AAFE05460E4650
:102F30002046394602F0A4FECA07400810434A085A
:102F40002D18314651410E462046394602F098FE72
:102F500002460B4628463146FDF75EF906463046E6
:102F600005B0F0BD01480068C00F704780052640DD
:102F700002480069C007C00F704700008005264066
:102F800070B5314A010000D101BEFFF7EBFF002808
:102F900058D12E4A0868904200D901BE8203C879F0
:102FA000920B002801D0012000060243284802604D
:102FB0008D88284B9D4200D901BE0A89264CA24229
:102FC00000D901BEED04ED0CD205D20915434560D0
:102FD0008E7A0F2E00D901BECD7A0F2D00D901BEF9
:102FE0008A899A4200D901BE33072D071B0F2D0E87
:102FF000D2042B43D20A13438A7B920792081343CD
:1030000083608A79002A08D0012A06D0022A04D0D7
:10301000032A02D0042A00D001BE0B8AA34200D9A1
:1030200001BEC368072424025207A343520D134371
:10303000C360C268098A094BC9051A40C9090A4315
:10304000C2600022104670BD03004A00FFFF03006B
:1030500080052640FF1F0000FF010000FFFF00FE6B
:1030600070B50D0001461D4810D000261C4A491EAF
:1030700012682032D27F8A421FD91A4889000C1860
:1030800020680121C9070843206005E00126EDE71B
:10309000012000F0D3F96D1E206CC00701D1002D76
:1030A000F6D1114821682E4308D08900890F0229E2
:1030B00002D1216801432160002070BD81430120BD
:1030C000400708182060012000F0B8F9206840008F
:1030D000400820600148401C70BD000001004A000B
:1030E0005806000800062640000000300F4B02463C
:1030F0001B680D482033DB7F521E934213D990008A
:103100000B4A801800684206520E0A70C204D20EA2
:103110004A70C202D20E8A700201D20F8000CA70B9
:10312000800F08710020704701004A00580600080F
:1031300000062640FEB505462648002600682030D9
:10314000C17F002944D0002D42D0807FA84200D802
:1031500001BEA9423CD369462846FFF7C7FF0028B5
:1031600036D1284600F038F8002805D068460079A6
:10317000022801D0012100E0002168460078029079
:10318000684647788478002922D0002F20D0002C70
:103190001ED02846FFF75CFD029902F071FD05463E
:1031A0000E463846214602F06BFDCA074008104320
:1031B0004A082D18314651410E463846214602F044
:1031C0005FFD02460B4628463146FDF725F80646C8
:1031D0003046FEBD580600080649401E09682031E9
:1031E000C97F814200D801BE0349800040180068B1
:1031F000C00F704758060008000626400749401EC9
:1032000009682031C97F814200D801BE044980008D
:103210004018006CC007C00F704700005806000837
:1032200000062640F0B504462548002300680A46FB
:103230002030C07FA0421FD32046FFF7CDFF0028DB
:1032400001D0204B3AE09678B01E0F2814D2557862
:10325000002D11D0122D0FD8D0781178002801D070
:10326000132700E01627B94206D3002801D03827DB
:1032700000E070278F4202D2124B9B1E1EE017798E
:10328000641E022F0ED04906ED06490EED0C2943AF
:10329000F506ED0AC0072943000901430A48A500C5
:1032A000281801600848A100091808680324127949
:1032B00024079207A0439208104308601846F0BD07
:1032C0005806000803004A0000062640024800682D
:1032D0008007800F7047000000122040F3B50025E2
:1032E0002149044600283CD06068042800D301BE70
:1032F0000020205E002803DB618800F03DF800E03C
:103300000D460020205EFF21184F626800280EDB6A
:103310008608174BB600F61833688007C00E814048
:103320008B439107090E81400B4333600FE0030785
:103330001B0F083B9B089B00DE19F3698007C00E3A
:1033400081408B439107090E81400B43F361B868BC
:103350000849884206D10020205E019900F036F825
:1033600000E00D462846FCBD0100560000ED00E0DF
:1033700000E400E00000000830B5134A282312687A
:103380009C5C0123DB03202C10D28408E5080CD1BF
:10339000A500401BC400FF20A0401268ED1853593F
:1033A000A140834301400B43535130BD948F8C4265
:1033B00000D101BE40070124400FE4070019126844
:1033C0008900C918505030BD58060008084A936853
:1033D000084A8000934206D1002900D101BE82181C
:1033E000106C1164704704494018006C704700006D
:1033F00000ED00E0000000080000001010B5002003
:10340000FDF766FF10BD000070B504460A4E0020AF
:10341000C0433168FDF720F8054605E031682846CD
:103420004843FCF7D9FE641BAC42F7D830686043D0
:10343000FCF7D2FE70BD00002006000810B503495D
:1034400009784843FCF7C8FE10BD00000C060008D0
:1034500010B50A4902680A6042684A6082688A6058
:10346000C268CA6002690A6142694A6182698A6106
:10347000C069C86100F020F810BD000030300008BD
:103480000C4A907A4106D079C007C009014390796F
:103490000004014350790002014310790143107880
:1034A000D3781B061843937852781B0412021343F7
:1034B000184370470006001610B5FCF73DFE10BD1E
:1034C00010B5FFF7A1FF10BD10B5FFF7B7FF10BD96
:1034D000F0B5002801D0192200E06422914201D900
:1034E000012200E00022274B1C6825688034A48D4F
:1034F0002E59B608B60016432E511C682568803434
:10350000A78DEE5903242402A643EE511D682E68B0
:103510008035ED8D7759BF08BF00174377511A6882
:1035200015688032D28DAE58A643AE50002804D024
:10353000102907D921290AD90EE018684030427DA8
:103540008A4201D3002014E0827D8A4201D3012007
:103550000FE0C27D8A4201D302200AE0027E8A4245
:1035600001D3032005E0407E884201D3042000E01F
:103570000520196849680A681209120102430A60A5
:10358000F0BD00005806000870470000FFB5054672
:10359000224881B01E460C46012B02D0002E00D0DE
:1035A00001BE690B00D001BE1D4F1E4A3968403173
:1035B000498E8908491E114322468A4301D1610080
:1035C00000D401BE1F2109022A460A4021408A4236
:1035D00022D1FCF709FE3A6891684032138EC9186F
:1035E000D38D528E23401B0A53439208521E224011
:1035F00092009A188B589C0AEBB2039DA402002DEE
:1036000001D0FF2501352B43F507AD0D2B431C439E
:103610008C50FCF7EDFD002005B0F0BD0100CE00A0
:1036200058060008001F0040F0B5224A05461268FF
:103630001F4813464033DC8D5B8E4607A6199B0856
:103640005B1E1E432B46B34300D001BE2032D67B07
:10365000184A126893684032928D202E01D2FF29B9
:1036600007D900291ED0022905D0FF2903D001BEA9
:1036700001E0002916D09F58002F0DDB0E480443AF
:103680002C40C00724180020202E09D3022904D082
:10369000FF2905D00648401EF0BD012149070C4313
:1036A0009C50F0BD99580029FBDA00209850F0BDDD
:1036B0000200CE0058060008FF00004010B50028A8
:1036C0000BD00521C9014418606800F068FD6068EE
:1036D00000F0BEFD606800F06FFD10BD70B5050024
:1036E00013D00520C0012C18606800F080FD6068D0
:1036F00000F08BFD0121606800F026FF002160686A
:1037000000F022FF284600F0E4FC70BD02210028F2
:1037100003D0C0790021106001E00020106008464D
:10372000704770B50D4600280ED00521C901441818
:103730006068002D05D10122294600F025FF606850
:103740000022294600F020FF70BDFFB581B004467D
:1037500068468089010601D5012600E000266946F9
:10376000097A4506CA06694605204F89C001211815
:10377000E01DFF30D20E6D0EFA30022A04D0012A6D
:103780000BD0002A19D02DE0002F2BD1022D29D2E9
:10379000876D002F04D1002308E0876D002F04D02F
:1037A00088681A462146B84723E001233246294655
:1037B000204601F040FD009010E0012F12D122467A
:1037C0006032D57B002D0DD000251574856D002D40
:1037D00004D088681A462146A8470AE0204600F02F
:1037E0008BFC06E001231A460021204601F023FD50
:1037F0000090009805B0F0BDFEB50E4600238F681E
:103800004D6804460122194601F015FD694622461D
:103810000D70603228049574000E4870D0742B0C23
:103820004B80203A93868F80D7863B0CCB806906ED
:103830000525ED0167191387E51D2346FF35890F1F
:103840007233FA3500290DD0A86D002868D00822FF
:1038500069461846FCF78EFDAB6DB86832462146C6
:10386000984763E0082832D007DC030002F020FA12
:1038700007141A5E215E5E285E000C284CD006DC20
:1038800009282AD00A282FD00B284FD132E030281F
:1038900038D031284AD13FE02046019A009900F003
:1038A00025F92DE033462046019A0099FFF74DFF98
:1038B00026E033462046019A009900F0C2FA1FE044
:1038C00033462046019A009900F059F818E0204646
:1038D000019A009900F04AF812E033462046019A16
:1038E000009900F06FFA0BE02046019A009900F071
:1038F000DAF805E033462046019A009900F011FB02
:10390000044613E0A86D0028A1D10022012311462E
:10391000204601F090FCF3E7204600F0EDFB05E0C7
:1039200001231A460021204601F085FC2046FEBDF9
:10393000F8B50C46002817D04F21C9000B58002BB2
:1039400010D00521C9014518AE680146224630460F
:10395000984701200090012361681B0700226868D6
:1039600001F0E8F80020F8BD0320F8BD10B50146CD
:1039700000246831012201F04DFD204610BDFFB545
:103980000446012083B01A460090002C0FD06846F0
:10399000418AC58A0523080ADB01E618C9B203007B
:1039A00002F086F90862080F216262323E6203204B
:1039B00007B0F0BDA16800296CD0122D2CD91227B8
:1039C00047E0A078012802D0022802D062E0A16975
:1039D00000E0E16900295DD0C8788A7807021743C2
:1039E000BD4219D935E00720C0012018407B0128CD
:1039F00050D1102938D888000019016A002933D025
:103A00000F78AF4208D224E0A078022842D1E168C2
:103A100000293FD00A2D01D82F461AE00A2718E0C6
:103A2000A07801281ED0A169002933D0C8788A78EF
:103A300007021743BD4200D82F46A320800020185C
:103A40003A460190FCF796FC072070730199002913
:103A500020D03A46204601F0DDFCBD4221D9B8060F
:103A600013D01EE0E169DFE74B20C0000359002BB3
:103A700003D02146B068984705E001231A4600218B
:103A8000706800F0DBFC002092E70021706801F014
:103A90002BF806E001231A460021204601F0CBFB5B
:103AA0000090009884E7F7B582B004466946088A1A
:103AB0000125400000194030408D08700520C001EC
:103AC000002620186F4640682B462A46314601F0F2
:103AD0005DF801902A463946204601F09BFC01988A
:103AE000012800D10126304605B0F0BD37B50021D0
:103AF00082B00C460091002813D06946097B012250
:103B0000C906C90E00290ED0012919D002291CD0DE
:103B100001231A46002101F08EFB0446204605B021
:103B200030BD0320FBE7014660318B7B002B00D0CA
:103B30000092097C002903D00099022211430091D0
:103B40006946022201F066FCE8E76946098A182501
:103B50000B064906490E69430918002B02DA803129
:103B6000897801E0A031897C0029E9D00092E7E75B
:103B700010B5002814D0C269026182694261022234
:103B80008270952292001358002B07D00522D20193
:103B9000821894680A46014620469847002010BDC6
:103BA000032010BD10B5002400280CD00A780C2A80
:103BB00042D00ADC130002F07BF80A3F14171A1DEA
:103BC00021243F31343F032010BD232A2CD033DD84
:103BD000242A2CD0252A27D0262A28D02D2A2BD1BA
:103BE00028E000F02BF807E0FFF7C2FF24E000F028
:103BF000B9F821E0FFF700FE04461DE000F0DEF911
:103C00001AE001784170062101700521C9014118AF
:103C10004A68C11C104600F03FFD0DE000F0E4F9D9
:103C20000AE000F0B7F807E000F0F8F904E000F06F
:103C3000A3F901E0FFF77CFE204610BDF3B58DB07F
:103C400004460026C67000786070042020700123AE
:103C5000A37066712546603566662E722E743046F6
:103C6000410009194031401C4E850228F8D3A17843
:103C70000BAAA068FFF74AFD6846837400220592EC
:103C8000437402740B98069007920892099208A850
:103C900002722046803006998160027102614261A1
:103CA0000370C270069981632146A0310A750264CF
:103CB00042640B74CA740A98039005200192C001F3
:103CC0000092029226187068069B049900F0D0FAC0
:103CD000002800D001202746FF37009081371D487B
:103CE000396A002309181A461B48FFF74FFC1B4886
:103CF000396A002308181A461949FFF747FC154886
:103D0000796A0023091814481A461038FFF73EFC58
:103D10001248796A01230818114900221039FFF767
:103D200035FC0020E8760121706800F00DFC0021D0
:103D3000706800F009FC706800F0D6FC93208000E9
:103D40000359002B03D0B06821460E9A984700987B
:103D50000FB0F0BD0005004067050000310800000D
:103D60001008004010B5002812D0027842700522D9
:103D70000270252212011358002B07D00522D20110
:103D8000821894680A46014620469847002010BDD4
:103D9000032010BD10B5002812D04278027008220E
:103DA0004270132252011358002B07D00522D20172
:103DB000821894680A46014620469847002010BDA4
:103DC000032010BDFFB5044681B000200090684676
:103DD00040899C46C2B2A078012824D0E76905201A
:103DE000C00123180720C00126189920800005591A
:103DF000204621786030002A17D067660272617011
:103E0000072121700021C173817301203073002DBF
:103E100003D0624621469868A847204600F06CF916
:103E2000009805B0F0BDA769D9E700276766617003
:103E300006212170677107728773C7730774377320
:103E4000E5E7FFB5002781B00446002806D06846A4
:103E500080898446000604D5012203E0032005B0D2
:103E6000F0BD002205256B46ED01187A6619614602
:103E7000E51DC0064906FF35C00E490E5B89FA35BF
:103E8000022804D0012806D000280DD02FE0002BF6
:103E90002DD102292BD2AB6D002B35D10123204629
:103EA00001F0C9F9009034E0302B32D004DC012B52
:103EB00007D0022B1BD113E0312B2AD0322B16D185
:103EC00027E020466030C17B002902D00121017427
:103ED00017E001231A460021204601F0ACF91DE04D
:103EE0006046010A706800F016FE070009D0012341
:103EF0001A460021204601F09EF90090012F0CD0B7
:103F00000DE0AB6D002B04D0B0682146049A9847B1
:103F100005E0204600F0F0F801E001200090009854
:103F20009DE77FB51A466B460446416E0025188909
:103F3000DE88002902D00979814207D801231A4678
:103F40000021204601F077F9054611E040000019F4
:103F5000403046854D20C0000659002E05D0052072
:103F6000C001201880682146B047204600F0C4F800
:103F7000284604B070BD000010B5002803D00A78B0
:103F8000262A02D004E0032010BD4A68002A0ED081
:103F90009D2292001358002B07D00522D2018218CF
:103FA00094680A46014620469847002010BD022129
:103FB0000148FFF739FBF8E75705000010B5002866
:103FC00010D0002242719B2292001358002B07D080
:103FD0000522D201821894680A4601462046984775
:103FE000002010BD032010BD10B5002814D00278A9
:103FF000042A0FD9427008220270972292001358A7
:10400000002B07D00522D201821894680A46014687
:1040100020469847002010BD032010BD10B5002891
:104020000ED0272212011358002B07D00522D201EF
:10403000821894680A46014620469847002010BD21
:10404000032010BD0022026042608260C2600261F3
:104050001146426193001B18521C9961102AF9D332
:10406000704710B50024FFF79DFD204610BD10B528
:10407000002400280ED0FF30FF3002300B0001F08A
:1040800017FE0F0B0D0F11131517191B25251D1FDB
:1040900021232500032010BDC26418E0026516E04C
:1040A000426514E0826512E0C26510E002660EE02F
:1040B00042660CE082660AE0C26608E0026706E03B
:1040C000426704E0826702E0C26700E00524204600
:1040D00010BD0021C17041700170817041710246B4
:1040E00060324166117291730723D173DB01117441
:1040F000C0180173D176704710B5002808D005218B
:10410000C9014418606800F0D9FA606800F0DDFC6D
:1041100010BD70B500251C4600280AD0002C0AD01E
:1041200000260B0001F0C4FD072E090B0D142E1CF8
:104130002E00032070BD022070BD846023E0C460A7
:1041400021E02179022901D884611CE0866105E023
:104150002179022901D8C46115E0C6610F2512E05A
:10416000102A01D9072070BD910009180C62002A9D
:1041700009D00721C9014018417B002903D1012141
:10418000417300E00625284670BD10B5002805D013
:104190000524E4010019406800F0F8FC10BD006837
:1041A000002807D000219122C94312028018C16162
:1041B00000207047062070470068002808D00921B9
:1041C00009034018816808229143816000207047EC
:1041D0000620704700689122120282185166092158
:1041E000090340188168012211438160704700680B
:1041F000002808D09121090240188169490B490320
:10420000816100207047062070470068002808D0B0
:1042100009210903401881680822114381600020A8
:1042200070470620704710B50468002C0DD0FBF7CE
:10423000DBFF9121090261188A6B01231B041A43D9
:104240008A63FBF7D5FF002010BD062010BD0000DB
:104250000068002808D09121090240188169034AAA
:10426000114381610020704706207047DD1F000068
:104270000FB4F0B585B008A9497B03688C4608A93E
:104280000D7B0C99002B0CD0022904D2042D02D2F4
:104290006046022807D3022005B0F0BC08BC04B079
:1042A00018470620F8E702460D9801248005800D86
:1042B000039008A8007B8007000D02900E988007ED
:1042C000800C019008A8807B8C4086468800009076
:1042D000002A01D0002968D1C718574838188269C8
:1042E0000126B603B24382618269039E920A92025A
:1042F0001643032292029643029A32430326360360
:10430000B243012D01D0032D01D1019E32438261C0
:1043100010AA1279492676020492002A05D0BF1904
:104320003A6E0126F602324304E0BF193A6E0126C6
:10433000F602B2433A660C9F0122BF1C7646BA4091
:10434000002E1BD0002913D0912636029E19B76A81
:104350001743B762B76B2743B763B76B1743B763AE
:10436000049A002A04D0826901263607324382610A
:1043700082690126B6033243826116E0866901270D
:10438000BF03BE43866100290FD08669BF03BE43C9
:104390008661912000021818866A96438662866BB1
:1043A000A6438663866B964386636046012801D0E8
:1043B00000293ED10098C218092000031018826914
:1043C0000127BF03BA4382618269039E920A920267
:1043D0001643032292029643029A3243032636037F
:1043E000B243012D01D0032D01D1019D2A438261E9
:1043F000012275465207002D0DD085693D43856128
:10440000002916D09121090259188B6A23438B6227
:10441000816911430CE08669BE438661002908D09A
:104420009121090259188B6AA3438B6281699143D8
:104430008161002030E7000080900000F0B5046842
:104440001F46002C05D0022901D2022A03D30220E4
:10445000F0BD0620F0BD0125092600202D043603FD
:104460000B0001F025FC10092323232323232323FE
:10447000232323232323233E002F0ED0A1198A694F
:104480002A438A612E4AA21893692B4393610A68D2
:1044900001239B061A430A60F0BDA1198A69AA4349
:1044A0008A61274961188A69AA4308E08B00002ABB
:1044B00007D0002F0FD0191989198A692A438A61F8
:1044C000F0BD002F03D01E491A195118F5E71F1926
:1044D0001B4BFB1801E01B199B199F69AF439F61A0
:1044E00002E00220002FEBD10029E9D00028E7D11B
:1044F0000907090F1023002A05D01943A219516199
:104500000123104904E09943F8E75B1C8B4215D066
:104510005469E405F9D58B4210D05369FF24013466
:10452000A343202423435361012302E05B1C8B42FD
:1045300004D05469E405F9D58B42C1D10720F0BD00
:1045400080900000FFFF00000268002A03D00229CB
:1045500003D30220704706207047492040020029FB
:1045600009D01018026802210A43026002688A43D7
:104570000260002070471018016801221143016099
:10458000016891430160F4E710B50068002805D088
:10459000022901D2022A03D3022010BD062010BD39
:1045A000002A14D08A001318492252029A18146A59
:1045B0000123DB021C431462146A9C43146291229F
:1045C00012028018826A01238B401A438262002003
:1045D00010BD0000F8B505464468FF2028752E6818
:1045E000606B0121C9070843606302E00120FEF708
:1045F00025FF606C4006F9D5606C4021084360647B
:104600006069C900084360610820FEF717FF606910
:10461000FF21013108436061012000F0D1FA9120AF
:1046200000023618F06D20273843F0650A2128462D
:1046300000F0E0FA002801D0012019E0F06DB84345
:10464000F065002000F0BCFA1048016A4907490FE4
:10465000012901D90E4901620E48FEF781FB0028AD
:1046600013D10021284600F0C5FA002801D000200F
:1046700028750120FEF7E2FE20680121C9070843E2
:104680002060E06880210843E060F8BD00FF26401C
:10469000F027210010270000006800280AD0002918
:1046A0000AD009221203801800684002400E0870E8
:1046B00000207047062070470220704700B5002890
:1046C0000DD0016800290AD00922120389188968CF
:1046D000490502D50349FFF77DFD002000BD0620F6
:1046E00000BD0000DC0500000068002808D009219A
:1046F00009034018816810229143816000207047AF
:104700000620704770B505680261064681609120F9
:1047100000022C18E06D01210843E0650846FEF711
:104720008DFEE06D10210843E065E06D02218843B5
:10473000E06509200003281801680122D206914390
:1047400001600549082069188862304600F098F930
:104750003046FFF73FFF70BD80930000F1B50020A9
:104760008AB002900390054604900A980768912049
:1047700000023C18E669A06906407DD0700709D5A3
:104780000420E06108206946087202A90A9800F036
:10479000BEF90546300709D50820E06101206946C9
:1047A000087202A90A9800F0B2F90543F00609D58B
:1047B0001020E06102206946087202A90A9800F000
:1047C000A6F90543F00412D5A16901200003814335
:1047D000A161E06103206946087202A90A9800F00D
:1047E00096F90543A069012109030843A061B005BA
:1047F00012D5A169012040028143A161E061052039
:104800006946087202A90A9800F081F90543A06977
:10481000012149020843A061700610D54020E061E3
:10482000042069460872092000033818C168039102
:104830000069049002A90A9800F069F90543F0079D
:1048400011D0A06940084000A0610120E06106206D
:104850006946087202A90A9800F059F90543A0694F
:1048600001210843A061700502D501208002E061AA
:10487000B0040CD5012000E058E04003E0610920BD
:104880006946087202A90A9800F041F90543F0054B
:104890000AD5FF200130E0610A206946087202A9AA
:1048A0000A9800F034F9054330050AD50120C0020A
:1048B000E0610D206946087202A90A9800F027F904
:1048C0000543B00710D5A16902208143A161E061D1
:1048D0000E206946087202A90A9800F018F90543EB
:1048E000A06902210843A06130061FD5A16980207C
:1048F0008143A161E061092000033E183068FF2177
:1049000009020840000A05900390102069460872C9
:1049100002A90A9800F0FBF805433068FF2109025C
:1049200088433060A06980210843A061E06BA16BDF
:104930000840002606904AE00120B0400190069908
:10494000084214D0A16B01988143A16325206946D8
:1049500008720020049002A903960A9800F0D7F884
:1049600005430198E063A06B01990843A0633146B9
:104970001031012088400699084222D0A16B012005
:104980000004B040059081430190A1632620694650
:104990000872B0004921C019490240180396006E00
:1049A00002A98005800D401C04900A9800F0AFF821
:1049B00005430198E063002E03D0A06B05990843DE
:1049C000A0632D480699B0408143761C0691069855
:1049D0000028B1D1E06AA16A08400190E062002499
:1049E00044E00126A64006421AD0A000C1190920C1
:1049F0000003081800908069059080020AD52320E2
:104A0000694608720020049002A903940A9800F0F5
:104A10007EF805430098059981610198B0430190A3
:104A2000012636040198A64006421ED0A000C119F6
:104A300012480818069080690590C0020FD5012120
:104A400005980907884305902D20694608720020C3
:104A5000049002A903940A9800F059F805430699B6
:104A6000059888610198B0430190641C0198002862
:104A7000B7D128460BB0F0BD0100010080900000C6
:104A800070B54468606C6064E06B0125ED072843F5
:104A9000E063E06A2843E0621420FEF7CFFCA06BDD
:104AA0002843A06302E00120FEF7C8FC606C80068A
:104AB000F9D5606C202108436064206849060843EA
:104AC00020602820FEF7BAFC70BD0068002809D0DD
:104AD000092109034018016801229206114301606F
:104AE0000020704706207047002806D00268002A80
:104AF00003D0022903D30220704706207047012308
:104B00008B4091210020090251188B647047826804
:104B10000369104618470068002808D009221203CC
:104B200080180268C9050A43026000207047062009
:104B300070470000FFB5064681B000680A9D1C461C
:104B40001746002811D0FBF74FFB024602987F2141
:104B5000490480003368002F0AD00B4E86199859FB
:104B6000002D08D08843204307E0062005B0F0BDA3
:104B7000054E8036F2E7A043884398511046FBF774
:104B800037FB0020F2E7000018900000022901D254
:104B9000022A01D3022070470068002809D089004A
:104BA000002A08D00818092109034018836500204D
:104BB00070470620704708180049F6E7809000000B
:104BC00010B58EB0044634216846FBF732FC002C49
:104BD00003D008200190102001E0002001906946D8
:104BE00008726A4601210248FCF700F90EB010BDB8
:104BF0008002314070B50D46002644680AE0002D61
:104C000005D03046761CA84201D9002070BD012095
:104C1000FEF7FAFB606CC007F1D0606C012108431D
:104C20006064084670BD0000F8B5154C0E4620784B
:104C30007D25ED00082805D12846FEF7FFFB30460C
:104C4000FEF74CFD2078012818D12F462846FEF7A4
:104C5000F5FB3046FEF742FD094802252830057471
:104C60000346002204213046FFF753FA3846FEF788
:104C7000E5FB02210348FEF721FD2570F8BD000089
:104C8000280800083C1C0008F7B592A003C88CB0A7
:104C90000791069008200025694602900D750D9831
:104CA0006030817C0391C67C0D98C9064030828EAD
:104CB0000992C90EC78E048F002901D1062E02D099
:104CC000F02E0BD026E085498A4223D18448007813
:104CD000A04200D204462246814917E0042F02D0A8
:104CE000052F0AD016E07E4814300078A04200D28A
:104CF00004467B492246143108E079483C3000786C
:104D0000A04200D20446764922463C310D9800F07C
:104D100081FB01250398212801D0A12805D1224635
:104D200031460D98FBF728FD012503984006800FBA
:104D3000022877D1A02E08D0A12E2BD0E02E35D07E
:104D4000E42E4DD0E52E52D05CE0002C5AD06448C1
:104D500044384078002855D1224662490D9800F029
:104D600021FB00284ED1099839040D185E48854270
:104D70000BD35B490020443948702846FBF72EFFCF
:104D800058492846FBF7F8FF4DE0554901204439C2
:104D9000487036E0002C35D00998390409182246AD
:104DA0000D9800F037FB00283DD02BE0002C29D1D6
:104DB0000D98FFF7A1F97D24E4002046FEF724FBBF
:104DC0004A48FEF78BFC2046FEF71EFB48490120AF
:104DD0000860082247494848FBF7CCFA00F082FFF8
:104DE000082C00D908243E4922462C3904E0102C16
:104DF00000D91024414922460D9800F00BFB0028F1
:104E000011D00025FDF708FE002855D0B02E0CD09B
:104E1000B52E0DD00120C002B22E18D0B32E2BD04B
:104E2000B42E3FD048E00125ECE7082206A908E0AF
:104E30002B4844388078FDF73DFC6946087501220F
:104E400005A90D9800F0E6FA002829D026E0844252
:104E500032D1FE02224623490D9800F0A3FA002821
:104E60002AD11F4822464438807800901D49304698
:104E7000029BFDF7F5FDE7E784421DD11849F802D2
:104E800044398B7822461749FDF79EFC0546224699
:104E900014490D9800F0BEFA002D01D000250BE05A
:104EA000012509E00E480122443839461204807871
:104EB000FDF79CFC002809D0002D05D101231A46DE
:104EC00000210D9800F0B7F90FB0F0BD0D98FFF775
:104ED00013F9F9E74658313050524F47EE030000BE
:104EE0006C080008EC1F0008008000103C1C000843
:104EF000503000088C660010C003000880000010CD
:104F0000FFB599B01C991A9C8906890E0D911791CD
:104F100000211C9F129113910521C90143180146DC
:104F2000FF3181311B68002C169315D0096A159149
:104F3000C11D04460326F9313607E034FF30213025
:104F4000154610911490402F5AD365602068400098
:104F5000400F04280CD00CE004464B6AFF34413467
:104F6000FF30613015937B4D164614911090EAE79F
:104F700001BE10212046A660FBF70EFE21681C989A
:104F800049008009490F022900D001BE012109040E
:104F9000401E884200D301BE616980B2090C090439
:104FA000014361611A98012813D120684000400F25
:104FB000022800D001BEA0691021000C00040843A3
:104FC000A06121684900490F022900D001BE80B2CA
:104FD000A0611798002805D020461099FBF7C6FD60
:104FE000002104E000212046FBF7C0FD0121012241
:104FF0001206206809069043084320600D9F00E0D8
:10500000109C042F01D201201390002F71D0032097
:1050100069460871487188710872002048721399B6
:10502000002901D0002200E0022269468A72002095
:10503000C872087301204873474B1C991A9A19408B
:105040000D91002A09D049190596049113990690EB
:105050000790002905D0394604E089190495059187
:10506000F4E7B9080891002109910A910B910C917C
:1050700001206946C8711398002808D1BF07BF0FE7
:1050800005D014980C900020C8710120129001A93D
:105090001098FBF797FC002F46D01298002801D0FB
:1050A000002100E0032168460171032141718171F3
:1050B0000172002141728172C17201730121417339
:1050C0001C993C200140244B1C983C331A9A1840F0
:1050D000002A129A04D0002A0CD0401904900DE046
:1050E000002A02D04D19049501E00D98049580190D
:1050F00005E019E00D9840190021049088190590E9
:10510000012100200691079109900A900B900C90C4
:1051100008976846C1711298002801D0149800E0E1
:10512000109801A9FBF74EFC15991698062900D393
:1051300001BE09020918012000030818046215992C
:10514000062900D301BE01680122D2071143016084
:105150001DB0F0BD00400030C0FF000010B50028B9
:105160000BD00521C90144186068FFF74EF860684C
:10517000FFF715F86068FFF73AF810BDF0B58BB08F
:105180000022694604468A740120059248740A7414
:105190004025204607920892803006950992856046
:1051A00002710261426102702146A03185630A7575
:1051B000026442640A740A9803900520C0010092B8
:1051C0000192029227182B4678680499FFF750F84D
:1051D00000206946887402262B4601220E7425465B
:1051E00005924A749835AB602E7128616861287009
:1051F0000A990391009001900290786818340499FC
:10520000FFF736F80020694648740699A034A96370
:1052100026752864686420740A99009001900391AF
:10522000029004AD0ECD7868FFF722F8002800D078
:1052300001200BB0F0BDF8B507001D4614460E4620
:1052400009D00520C00138184068FFF7F7F800289A
:1052500003D00120F8BD0320F8BD002E0DD018208A
:105260004643F01901468031A030002D01D00122C3
:1052700000E00022012C02D082740020F8BD8A7068
:10528000FBE70000F8B50C460521C9016618B060BF
:1052900020460CC6FF308130012700254762056299
:1052A0002046083EFFF75AFF20460830FEF7CAFEA8
:1052B000E01DFF30FA30C564056545658565C56547
:1052C000056645668566C5660020410009194031BE
:1052D000401C4D850228F8D325706570A770E570D5
:1052E0002571657120466030656605728573C573EA
:1052F00005740A4A21467068FFF704FA2046FFF752
:105300003DFF204600F00AF9217861700721C901AC
:10531000277061184D730D73F8BD000063400010D5
:10532000016001214160002101724172704730B576
:105330000324047001234470002A02D083700124E6
:1053400001E084700324047114465C40C47000249E
:10535000002A02D00225857101E084710125457281
:1053600082624471C4710472C460436104618361E8
:10537000012903D0002A0AD0102109E0C361002AC4
:1053800001D0102100E000214462016208E0012107
:105390000462C161002A01D0102100E000214162B5
:1053A000C46230BDF8B5002714460E4605460028F5
:1053B00027D0002E27D0002C25D0FEF79DFE2346B7
:1053C000324600212846FFF79BFD0520A106C001BB
:1053D0002C18002902D06068FEF725FF6068FFF7EF
:1053E0006DF92E46FF368136726A00232846216801
:1053F00000F064F80200716A206806D0FBF794FAA6
:1054000006E00320F8BD0220F8BDFBF79BFA0E274B
:105410003846F8BDF8B5044600200E461546009003
:10542000002C15D0002E15D0002D13D013460122CC
:1054300000212046FEF7A9FE2B46324601212046D8
:10544000FFF75EFD26466036F07E002804D009E0B6
:105450000320F8BD0220F8BD02211748FEF7E4F84A
:105460000120F0762046FEF747FE0A20FDF7E6FF12
:105470000520C00127187868FFF720F92546FF3579
:1054800081352A6A01232046396800F017F80200A6
:10549000296A386803D0FBF747FA0098F8BDFBF794
:1054A00051FA012200212046FEF73BF90020F07658
:1054B0000E200090F8BD000067050000FFB581B028
:1054C0000546144C03990298FBF749FA0521C901D6
:1054D0006F189126360201252D0416E0641E16D0A1
:1054E0000120FDF791FF049800280AD17868006830
:1054F0008019C16BA94204D1C56302210648FEF799
:1055000093F803990298FBF72AFA0028E6D005B031
:10551000F0BD0000C409000057050000F0B50446C6
:105520000520C001251828689FB001680122D20714
:1055300011430160012211466846FFF7F8FE20463C
:10554000E03069460646FBF73DFA00220121684635
:10555000FFF7EDFEE01D6946F930FBF733FA204610
:10556000FF3069462130FBF72DFA314618A8FFF7C6
:10557000D7FE2646FF368136316A18AA2868FBF71F
:10558000F9F9012200210CA8FFF7D1FE304640387E
:105590000CA90746FBF716FA012200210CA8FFF719
:1055A000C6FE30460CA92038FBF70CFA0CA9304691
:1055B000FBF708FA39461BA8FFF7B2FE716A1BAA6F
:1055C0002868FBF7D7F900201FB0F0BD0648016836
:1055D0000122890089089207891801600168020682
:1055E000114301607047000080012640F8B506466F
:1055F0000024FDF745FF0D4600903C20021B294684
:105600000098FAF7F8FD0207120F00200A2301465E
:10561000D31A814101D3372100E0302151186208AB
:105620009219241D9170E4B2D070402CE5D3222051
:10563000307003207070F8BDFFB585B01C46164869
:105640000E9D4B0625D000208B070126FF27002B3F
:105650000FDAD068002810D0002101970396049536
:10566000029400910279017800230598FCF740FF2D
:1056700001E089070DD000280BD100200346024627
:105680000090B72101970396049502940598FCF7C2
:105690002FFF09B0F0BD00008000B200FCB59C46B1
:1056A000C3B200040025000E0095019088790824FB
:1056B000C0009E46083011E00E5DB6450DD10E19B2
:1056C000F379019F9F4208D17778009B9F4204D3D2
:1056D000B678012E01D1254600970834A042EBD2BE
:1056E000002D0BD048190179917041795170817961
:1056F0001170C078614680000870FCBD00216046D2
:105700000170FCBDF0B54D6A1B3847082B0700211E
:10571000DB0E08469B1CC400241A2E46E6403609C0
:105720007406F606A40FF60E002C06D0012C06D047
:10573000022C06D0032C06D007E0012105E0102141
:1057400003E0802101E07D21C900761C4E431C4608
:1057500074430C264643B618401CB4600428DAD3C0
:105760000C204743B8188038C06FF0BD10B50068F2
:105770000B0000F09DFA06111E1E1E120411C10539
:105780000BD53E2010600021022011715071C31E04
:10579000936010731161107510BD010609D5104694
:1057A00000F0C5F910BD00F0B7F910BD00F0CBF95D
:1057B00010BD40061046F9D5F5E7F0B50026FF25E7
:1057C000F6438778002401292FD003292DD0022AFF
:1057D0002BD3BA060221002A12DA427A1A601C710F
:1057E0005971027A520909D0FF229A601973007A1E
:1057F000C006C00E1861197505254EE09E60F6E7DB
:105800007A064AD5C27A1A601C715C71827A520992
:1058100009D0FF229A601C73807AC006C00E1861FE
:105820001975042539E09E60F6E7FD060121002D7B
:1058300014DA002A12D0C27B1A601C715971827B63
:10584000520909D0FF229A601973807BC006C00EEE
:1058500018611975032520E09E60F6E7FD0714D056
:10586000002A12D0427B1A601C715C71027B5209C3
:1058700009D0FF229A601C73007BC006C00E18611D
:105880001975022509E09E60F6E7032018601C7177
:105890005C719E601C611C7501252846F0BDF0B549
:1058A00004460068042801D01D2028E00020656916
:1058B000431E2B604B78DB061E0F034601273D4637
:1058C0009D40B54303D05B1C042BF8D925E0042B85
:1058D00023D21D1D00200E180C2747433679401C8B
:1058E000D6550428F7D3485D6169086058001D301B
:1058F0000DD112E0232801D300200EE0801C0A5CA9
:10590000FF2AF7D0002808D0D1B26269116062691D
:105910000021117162695171F0BD6269FF2111713D
:10592000F0BD0000FFB50026674F8BB00D46344632
:10593000304600210AAA1154401C0428F9D35AE029
:105940002A19507869468446D07808900020087556
:105950009078800915D0012805D0022805D00E982E
:10596000002100680BE0032000E004200021231840
:105970005B1A5B19DF780AAB5F54491CC9B28142DC
:10598000F5D391780907090F0F2900D108210B9A47
:105990000692099105AB149A00210793159F019176
:1059A0000292039100900A460AAB0497614606985A
:1059B000FCF79EFD00280FD10998002805D001466C
:1059C0000698FCF745FD002806D100230122009728
:1059D00007990698FCF7FAFC070008D17006060E36
:1059E0006846007D0899084000D0012006430D98C4
:1059F000083484420CD8285D8007A1D5002F0AD036
:105A00005EE08078800004190D980834844202D941
:105A10002D4F7F1C54E028194178B142F1D128194B
:105A200080780E99401CC0B20390C8640398012886
:105A300001D8254F44E00020019000903CE00099FF
:105A4000019840180190241D2A5D002001211207B1
:105A5000120F08E04906401C090EC0B2042802D902
:105A6000194F7F1C01E00A42F4D029590123090A89
:105A70000902FF31013100910E990A6D02998900E6
:105A80005658019931600C2148431699095CB16060
:105A90001699401881683161426800998A4202D99A
:105AA0007360F16005E0F26041680098FAF7D4FC99
:105AB00070600298401CC0B2039902908842BED325
:105AC00038460FB0F0BD00000600B200FFB585B04B
:105AD0000C4649790020109D03900E9F0F9E029363
